:020000040800F2
:1000000088630020A936000871360008733600089E
:1000100075360008773600087936000800000000C1
:100020000000000000000000000000007B36000817
:100030007D360008000000007F3600088136000889
:10004000C5360008C9360008CD360008D13600088C
:10005000D5360008D9360008DD360008E13600083C
:10006000E5360008E9360008ED360008F1360008EC
:10007000F5360008F9360008FD360008013700089B
:1000800005370008093700080D3700080000000098
:100090000000000000000000000000001137000810
:1000A00015370008193700081D37000821370008E8
:1000B00025370008293700082D3700083137000898
:1000C00035370008393700083D3700084137000848
:1000D00045370008493700084D3700080000000088
:1000E0005137000855370008593700080000000054
:1000F0000000000000000000000000005D37000864
:100100000000000061370008653700086937000803
:1001100000000000000000000000000000000000DF
:100120006D37000871370008753700087937000807
:100130007D37000800000000000000000000000003
:1001400000000000000000000000000081370008EF
:1001500085370008893700088D3700089137000877
:1001600095370008993700080000000000000000E3
:10017000000000000000000000000000000000007F
:10018000000000009D370008000000000000000093
:10019000A1370008A537000803E011F8013B00F87B
:1001A000013B13465A1E002BF7D17047130003D0B2
:1001B0000A46194601F0F0BC704702781AB18A422B
:1001C00018BF401CF9D1104670472DE9F041024696
:1001D000002300264FF480574C4C0C2505FB06F0FD
:1001E00004EB000CDCF80000B8B102EB070EDEF8FF
:1001F0000080404502BFDCF80400DEF8088040457E
:1002000002BFBCF80800BEF806C0604506D1022E49
:100210000AD193B9022905D10FE00123761C022EE1
:10022000DCD3F4E7122009E029B96E43A019408914
:10023000B0F5807F01D1102000E00020BDE8F08102
:10024000F0B500F5805300221C68304D0C2606FBEB
:1002500002F02F58A74201BF2F1D57F800E09F68FA
:10026000BE4505D105F10807385ADF88B84202D0EB
:10027000521C012AEBD9022A11D128680022002839
:100280001EBF0122E86800280ED116FB02F02844A8
:1002900004609C6844600024DB88038144815643E9
:1002A000AB19588929B108B10020F0BD4FF4807016
:1002B00000E0401C5881501CF0BD10B5401E0228C3
:1002C00014D20C21484311490A185389B3F5807F91
:1002D00001D01C0002D10023538103E05B1E538137
:1002E0009BB20BB900220A50002010BD022010BDA5
:1002F00030B50021054A00250C234B43D4588442D5
:1003000008BFD550491C0129F6D930BD5021002025
:100310002DE9F843814641F2010109EB0106002570
:10032000F078C8B141F218074F44D7F8148000F0B4
:1003300016F808B101250FE0F070B9683868A8EB2D
:100340000101814208D2B47804E03868804400F0AA
:1003500006F8641E012CF8D82846BDE8F2833078F0
:1003600001234246494601F05FBCF8B5044641F21C
:100370002C070D46E0590026854211D02046FFF794
:10038000C7FF06000CD141F201000123205C2A4680
:10039000214601F043FC10B14FF0FF350126E55135
:1003A0003046F2BD70B50446FFF7B2FF050048D1F4
:1003B00004F580563078032804BF7079012839D1BC
:1003C000728900212046FFF7F1FE04F5F2705521F5
:1003D0008176AA22C2765221217061706122A270B8
:1003E0004121E17072220270427081706122C270FC
:1003F00001233169017132691204120E42713169AF
:10040000090C81713169090EC171F1680172F268DC
:100410001204120E4272F168090C8172F168090E21
:10042000C1722146F2697078521CF26201F0FCFB45
:100430000020707100227078002101F003FC00B1EF
:100440000125284670BD10B541F214020244891EF0
:1004500013689B1E994201D3002010BD41F2020394
:10046000C45C506904FB0101084610BD2DE9F84346
:100470000E46022E074658D307F580556869864216
:1004800053D2297801294FF0FF3404D04DD30329EA
:1004900034D024D349E06889296A06EB5609B9FBB0
:1004A000F0F000F04CF8002840D100F0C8F8296ABC
:1004B00017F80990B8FBF0F000F041F8002835D1AA
:1004C0006889B8FBF0F100FB1188F10717F8080004
:1004D00049EA002454BFC4F30B04240926E06A89C6
:1004E000296A520800F029F800BB6889760000F0FC
:1004F0001EF84278047844EA022417E06A89296ADF
:10050000920800F01AF888B96889B60000F00FF870
:100510008478C27841780078240444EA026444EA8A
:100520000124044324F0704400E00124CAE0B6FB37
:10053000F0F100FB1166B8197047B6FBF2F04118F4
:10054000384612E72DE9F8430C46022C06461746BA
:100550006CD306F580556869844267D229780129F1
:1005600004D063D3032946D035D35FE06889296A74
:1005700004EB5409B9FBF0F000F06BF8010056D120
:1005800000F05DF806EB090014F001041DBF0178CE
:1005900001F00F0141EA071139460170012028716D
:1005A0006889296AB8FBF0F000F053F801003ED1E9
:1005B0006989B8FBF1F201FB128806EB08010CB166
:1005C0003F0906E00A783F0A02F0F00207F00F0741
:1005D00017430F7027E06A89296A520800F037F83C
:1005E000010024D16989640000F023F80F703F04F2
:1005F0003F0E4F7017E06A89296A920800F027F8C9
:10060000010014D16989A40000F013F8CB781B060F
:1006100003F070431F430F703A04120E3B0C3F0E61
:100620004A708B70CF700121297100E00220BDE873
:10063000F283B4FBF1F201FB12443119704768896F
:1006400009F10108B9FBF0F100FB11997047B4FB07
:10065000F2F04118304688E62DE9F8438946B9F1B1
:10066000010F05462BD941F210002E1871688945FB
:1006700025D2002441F2050749462846FFF7F6FE39
:100680005FEA00081ED0B8F1010F18D018F1010F71
:1006900017D0002249462846FFF754FF044688B980
:1006A000306810F1010F05D0401C3060E85D40F06B
:1006B0000100E855C14670688145DDD302E002249F
:1006C00000E001242046BDE8F2832DE9F041064612
:1006D0005FEA010841F20C0006EB000406D1256830
:1006E00015B1A06885420FD301250DE03046FFF714
:1006F000BDFE012898BF012040D910F1010F3DD067
:10070000A16888423AD345462F46A0687F1C87429D
:1007100002D30227012D0BD939463046FFF7A6FE3A
:1007200040B110F1010F18BF012827D0AF42ECD122
:10073000002023E06FF0704239463046FFF702FF99
:10074000B0B9B8F1000F05D03A4641463046FFF740
:10075000F9FE68B92760606810F1010F0DD0401EE6
:10076000606041F20500315C41F00101315404E068
:1007700001280CBF4FF0FF3701273846BDE8F08154
:1007800041F2020310B500F58050426A0068184437
:10079000121D04890078B1FBF4F1B1FBF0F003E025
:1007A000884206D3401A083211680029F8D1002087
:1007B00010BD5168081810BDF8B500F580560D46FB
:1007C000B468F580012C43D0306800F58050416951
:1007D0008C423DD24CB90178032901D1446A24B935
:1007E00001898D4234D2406A2FE0478980787F09A1
:1007F000474308E0012C2BD9306841F214014258DC
:10080000944225D2ED1B3068BD4221461BD3FFF731
:100810002DFE044614F1010FECD10120F2BD326827
:1008200041F20A03D45A6409B5FBF4F108183061A7
:10083000D05A4009B5FBF0F300FB135502EB45100D
:1008400070610020F2BDFFF7FEFD0028F460E6D1E4
:100850000220F2BD2DE9F04700F580560C46F788DE
:100860007F1C38041CBF316900292ED0326841F248
:10087000020802EB080341F20A0918894009B7FB94
:10088000F0F500FB1570002860D1491C3161F1685A
:1008900019B9D888874259D317E01D891B786D098B
:1008A000B7FBF5F05B1E184250D11046FFF7DEFD96
:1008B0000546012D14D915F1010F3BD0306841F2E6
:1008C0001401425895423BD30CB904204BE0F16827
:1008D000FFF7FBFE050008BF072044D0012D01D122
:1008E000022040E015F1010F24D001F0DAF808BB36
:1008F000306830F8092000F01AFA30682946FFF70E
:10090000A2FD316841F22C044FF0000A085105E0C5
:1009100030680159491C01510AF1010A306800EBA5
:1009200008010A78924507D20120887001F0B9F8D1
:100930000028EDD0012016E00159A1EB0A01015178
:10094000F56029463068FFF77EFD3061F78030683A
:1009500030F809104909B7FBF1F201FB127700EBFF
:10096000471070610020BDE8F0870246CB7E887E8C
:1009700002F5805240EA03201378032B05D14A7D0B
:10098000097D41EA022140EA0140704781760A046C
:10099000090C0175120E090AC276417570477CB5C3
:1009A000164605461C460B22FFF7F6FB062C14D311
:1009B00010E036F8021B1020224601F0010404EB7F
:1009C00042044908E20344BF84F4883484F02104DB
:1009D000401EF1D130880028EBD1072004F00F022F
:1009E0003032D3B23A2BA8BFD21D0DF80020401EE2
:1009F0002409F3D17E220DF80020002200E0521CD1
:100A0000824202D2AB5C202BF9D113465A1C072834
:100A10009ABF1DF80040401C2024EC54072AF4D94A
:100A200073BD024600200B210306C00100EB53609A
:100A300012F8013BC018491EF6D1C0B270472DE92B
:100A4000F14F82B00021FFF7B7FE5FEA00087AD1CC
:100A5000FF2000904FF6FF7A029800F58055FF279F
:100A6000A5F824A000F066F95FEA00086BD16C6974
:100A70002178002940D0E07AE52900F03F0058D0E5
:100A800002073CD50F2854D1286A002854D04A06C2
:100A900006D5637B009321F04001EA88AA840F46C3
:100AA000FAB2914202BF0099627B914222D126782C
:100AB00026F04006761E0D214E434FF0000B4FF0FE
:100AC000010881460FF2542010F80B002118205C19
:100AD0004A78B8F1000F40EA022037D001F04FF811
:100AE000FF2E804606D239F8160001F048F8761C31
:100AF00080452DD0FF271FE04FF0040823E00F288A
:100B0000C2D0FFB22FB9009F2046FFF78AFF87426D
:100B100019D0AA69D07AC1070BD40B23002118463B
:100B2000431E28B114F8010B12F8011B411AF6D02C
:100B300049B1FF27A5F824A000210298FFF78AFEFB
:100B40005FEA00088ED04046BDE8FE8F5045D1D107
:100B50000BF1010BBBF10D0FB4D32078410606D584
:100B6000B8F1000F1CBF39F816000028C2D17F1E53
:100B7000E2E7002140466DE62DE9F84F804608F592
:100B8000805584B0AE69D5F820A00C22314601A86A
:100B9000FFF702FB0DF1040999F80B00C1071FD5FF
:100BA0000020F072286201273B46524601A93046D8
:100BB000FFF7F5FE4046FFF742FF010002D17F1C20
:100BC000642FF1D30446642F08BF072000F0A280F1
:100BD000042840F09E8099F80B00F072C5F820A020
:100BE00099F80B0081070BD5002100E0491C3AF869
:100BF00011000028FAD119310D20B1FBF0F600E008
:100C0000012600214046FFF7D7FD0446A0B9002782
:100C100000F090F8044678B968690078E5281CBFB0
:100C20000028002702D17F1CB74208D00121FFF71E
:100C3000A1FF00280446EBD0042C08BF0724002C99
:100C400041F204074FD1761E4ED0E988891B4046F9
:100C5000FFF7B2FD0028044645D1A8690FF2BC0A8F
:100C6000FFF7DFFE8DF800004FF6FF7900F062F825
:100C70000028044637D16B69D5F820C09DF80000E4
:100C800058730F210020D97218739876D87632469F
:100C9000D0B2411E0D2000FB01FE01E0484503D00B
:100CA0003CF81E000EF1010E1AF804B003F80B0018
:100CB0009B4401128BF8011000B94846641C0D2CAE
:100CC000ECD348451ABF3CF81E00002842F0400211
:100CD0001A7001202968C855FFF74BFF044610B968
:100CE000761EC3D100E0A4B900F024F8044680B910
:100CF000686900F01BF8A96968690B22FFF74CFAD4
:100D0000A869C17A686901F01801017301212A6894
:100D1000D155204605B0BDE8F08F0000010305075E
:100D2000090E10121416181C1E00000020220021AB
:100D3000FFF73CBA29692868FFF717BB2DE9FE4F7A
:100D40008946D9F8005000E06D1C29782F2918BF7A
:100D50005C29F9D041F21801084400900027D0F82E
:100D600008800FF2A81A0026AC5D761C202CC0F279
:100D7000AC802F2C18BF5C2C00F0A780FF2F80F0D8
:100D8000A280802C80F29F80002C00F09C80802C20
:100D900006DA21465046FFF710FA002840F093800B
:100DA00028F817407F1CDFE77F1E97E0401C38F8CB
:100DB0001010202918BF2E29F8D008B149F00309D6
:100DC00034F817102E2901D07F1EF9D1CDF80880F4
:100DD0000025DFF8A0270192AB460826804600E0F8
:100DE0008946029830F81840002C08F1010840D0DC
:100DF000202C49F00301F3D02E2C01D1B845EFD1BE
:100E0000B54201D2B84535D10B2E27D1009A1268D0
:100E10001378E52B04BF05241470082E08BF4FEA91
:100E20008B0B0BF00C000C281ABF0BF00302032AEB
:100E300041F0020188070BD40BF00302012A08BF1E
:100E400041F010010BF00C00042808BF41F008012C
:100E500000980268D1720020BDE8FE8FB84518BF27
:100E60008946474521BFB84608250B264FEA8B0B1C
:100E7000B7D249E0802C0ADB49F002090CDA002CD9
:100E80001FBF0198001910F8804C002C04D0214697
:100E900021A0FFF792F918B15F2449F003090DE092
:100EA000A4F141001A2838BF4BF0020B06D3A4F17D
:100EB00061001A283CBF4BF0010B203C00980168F0
:100EC0004C556D1C8DE70620C6E7A819C9F800002F
:100ED000202CACBF4FF000094FF00409002FF2D0D6
:100EE000A8F1020434F81700202818BF2E283FF478
:100EF0005BAF002028F817000B2200980068202123
:100F0000FFF754F9002052E749467FE7222A3A3C8E
:100F10003E3F7C7F000000002B2C3B3D5B5D0000D2
:100F200032B5044608782F2812BF5C28491C00916E
:100F300004F580550020A86000990A78202A10D274
:100F400000212046FFF738FC00226A6132BD4907C4
:100F500019D46969C87AC20614D52868FFF705FD57
:100F6000A86069462046FFF7E9FE01000BD1204644
:100F7000FFF765FDA969C97A0200E8D0042802D10B
:100F8000490700D4052032BD03464FF0FF301A68F0
:100F9000002A00D1704710B514462178202906D3C5
:100FA0003A2918BF641CF8D101E0002010BD3A298D
:100FB000FBD112F8011B30390A29F7D2A24208BF2F
:100FC0000029F3D1621C00201A6010BD38B5044618
:100FD00041F20402A01800234FF0FF350370856230
:100FE0002046FFF7C2F908B1032032BD04F5FF70B7
:100FF0004AF655224178007840EA0120904201D01B
:10100000022032BD04F13601DFF890294B78887850
:101010001B0243EA004308780343934208D04B7F06
:10102000887F1B0243EA0043087F0343934201D1B8
:10103000002032BD012032BD2DE9FF4707460020C8
:10104000386014460846FFF79FFF0646002E48BF4B
:101050000B2006D4DFF8488908EB860045680DB9F7
:101060000C2058E13D6005F58057387848B1787814
:1010700000F0B8FDC10704D4002C01D040070DD406
:1010800048E1002038707E70787800F0B4FDC10728
:1010900048BF032003D41CB1400701D50A203AE120
:1010A00041F20A002A187878022100F0CBFDA8BB93
:1010B0007889A0F5007040F6016188422ED20021A7
:1010C0002846FFF783FF0024012825D1002105EBE6
:1010D000011202F5DF72107948B1907AD37A0004D8
:1010E00040EA0360537A127A40EA032010434DF835
:1010F0002100491C0329EAD9A1465DF8294024B101
:1011000021462846FFF762FF00E0022020B109F1E6
:101110000109B9F1030FF0D9032801D10120FAE048
:10112000002820D1287BE97A7B8941EA0021994275
:1011300019D1E87DAA7D52EA002205F1210C0CD1DB
:101140009CF805209CF806009CF8041000F0E6F8D6
:101150009CF8030042EA01220243BA61287CF8703D
:10116000012818BF022878D14243687BB870002854
:1011700073D0411E084270D1AE7C697C41EA062ED4
:1011800071465E0991FBF6F906FB19110029A7F8D3
:1011900008E062D1297DEE7C56EA01260DD19CF84B
:1011A00001609CF80210360446EA01669CF80010C3
:1011B00046EA012695F820100E4395F80FA0A97B6A
:1011C00051EA0A2149D002EB010AD1444E4544D3E9
:1011D000A6EB0906B6FBF0F000283ED0012640F64B
:1011E000F67A504528BF02264FF6F67A504528BFBA
:1011F0000326801C0919A144032E7861FC61396221
:10120000C7F8289012D1BEF1000F26D19CF80D200E
:101210009CF80E009CF80C1000F080F89CF80B0075
:1012200042EA01220243786980000EE0BEF1000F1D
:1012300013D0386A12187869022E0FBF400000EBF5
:10124000400100F0010000EB51007A62591E0818BD
:10125000BA69B0FBF3F0824201D20D205BE04FF09F
:10126000FF303861F86080207871032E01BF9CF850
:1012700010009CF80F1041EA0021012940D1611CA7
:101280002846FFF772F800283AD1787105F5F27117
:10129000C87E8A7E42EA00224AF6552082422FD139
:1012A000AB78EA782878DFF8FC461B0443EA02634F
:1012B0006A7843EA02230343A34221D18A78C8789B
:1012C0004B78DFF8E44600F029F8087842EA032278
:1012D0000243A24214D18A79C8794B7900F01EF8F2
:1012E000087942EA032202433A618B7ACA7A087A81
:1012F0001B0443EA02634A7A43EA02230343FB6086
:101300003E70B8F80000401CA8F80000F88028469D
:10131000FEF7EEFF002004B0BDE8F087120442EAB9
:101320000062704780B500281FBF4FF480514218FB
:10133000106800280BD00144087840B1C888928812
:10134000904204D1487800F04DFCC00701D5092037
:1013500002BD002002BDF3B581B01546009168467C
:10136000FFF712FE002801D50B20FEBDDFF8301676
:1013700001EB80064FF48057746824B12046FEF7D5
:10138000B7FF0021E155019810B90021716008E014
:1013900001990020C855019A7260019808B1012D89
:1013A00001D00020FEBD002202A901A8FFF744FEE3
:1013B000FEBD2DE9F34FADF5805D8DB008B9092074
:1013C000D3E000F580550020286041F20C0702F0C0
:1013D0001F096F4441F2380109F0FE0269443846A2
:1013E000FFF72AFE5FEA00086ED1DFF8AC66C7F8A7
:1013F00018D006F11801396203A80DF58051896BE8
:10140000FFF78EFD5FEA00087C690BD114B94FF03D
:10141000060807E019F0FE0118BF012103A8FEF736
:10142000D4FE804619F01C0F41F22C0A6DD05FEA01
:10143000080060D0B8F1040F0AD1306800281CBF42
:10144000F068002812BF122003A8FFF795FB804622
:101450007C695FEA080049F0080933D15FEA097046
:1014600038D500F00BFCA0730104090E020C000E2D
:101470006074E1730020E07220776077A077E077F6
:10148000227421463868FFF770FA0646002120468C
:10149000FFF77CFA396841F2040201208854A6B1B2
:1014A000386850F80AB03146FFF7D6F85FEA00080E
:1014B00008D1386841F20C01761E46505946FEF7B5
:1014C00054FF80465FEA08004ED15FEA097048BFCA
:1014D00049F02009386850F80A10E9612C6219F0C7
:1014E000FE0118BF012103A8FEF7AAFEA862E8B911
:1014F0004FF0020838E0E07A10F0110F13D15FEAE4
:101500004970ABD54FF008082EE05FEA0800D9D14A
:10151000E07AC10648BF4FF0040825D45FEA89711C
:10152000D3D5C007D1D54FF007081DE085F8069048
:101530000020E87121463E683046FFF716FA286120
:10154000A17FE07F627F090441EA0061207F41EAD8
:1015500002210143E96041F206000021A960A9616E
:1015600069622E60325AAA8040460DF5805D00F017
:1015700095BA0000603400082DE9FE4F81461D46F3
:1015800000202860884617464846FFF7CBFE01003A
:1015900002BF09F58056F079002840F0A180B079AB
:1015A000C10758BF072040F19B80F068B4680195DF
:1015B000041BBC4288BF3C4641F2010B45E0716907
:1015C0001046FEF753FF0228C0F08C8010F1010F87
:1015D00000F08B80706171693068FEF734FF00287D
:1015E00000F08080009901EB000A3068C25BB4FB18
:1015F000F2F5002D49D0584400F054F93CBF009D4D
:101600004D1B2B465246414600F008FB00286CD18A
:10161000B07941060DD5B069A0EB0A00A84208D206
:101620003168CA5B02FB00F3494608EB0300FEF792
:10163000B3FD3068C75B6F43B0683818B060B8441A
:101640000199086838180860E41B002C47D03268FC
:10165000B16841F20200131841F20A071889B1FB80
:10166000F0F500FB151038BB1878431E1D40EDB295
:1016700028000095AFD109B93069A4E7706A002845
:101680009DD04846FFF77CF89DE7B269524511D0DE
:10169000B1794B0606D510F80B0000F00CF920BB11
:1016A00000F076F90123306810F80B00524600F084
:1016B000FFF8D0B9C6F818A03268B168D25BB1FBA8
:1016C000F2F35343501A18182746844288BF07463E
:1016D000C91A3A4649444046FEF75EFDACE7002091
:1016E000BDE8FE8F0220F071FAE70120FBE72DE94B
:1016F000FE4F81461C46002020608B46904648469F
:10170000FFF710FE010002BF09F58057F8790028A5
:1017100019D1B879810758BF072014D5B86808EBEC
:101720000001814280F0B58009F5805009F58052B2
:101730008168D068814238BF0146F9600020B979DC
:1017400041F02001B971BDE8FE8F79691046FEF7BE
:10175000BCFF0028E8D001281BD010F1010F00F0D9
:101760009F803969786101B93861B87941060BD534
:101770003868BA6910F80A0000F09DF800281ED1F8
:10178000B87900F0BF00B87179693868FEF75BFE80
:10179000002800F0828000990E183868025BB8FBC0
:1017A000F2F5002D4DD0504400F07CF83CBF009D78
:1017B0004D1B2B463246594600F036FA00286FD1B1
:1017C000B869861BAE420BD239680A5B56430BEBF5
:1017D00006014846FEF7E0FCB87900F0BF00B8719A
:1017E0003868045B6C43B8682018B860A34401995A
:1017F000086820180860A8EB0408B8F1000F93D01F
:101800003A68B96841F20200131841F20A041889D3
:10181000B1FBF0FE00FB1E1010BB1878431E03EA5C
:101820000E00C0B2002800909FD119B93869002875
:101830008FD18BE7786A002887D04846FEF7A0FF53
:1018400087E7B969B1420AD0BA68F9688A4206D214
:1018500010F80A000123324600F02AF800BBBE61EE
:101860003968BB68095BB3FBF1FC01FB0CF5C81AD6
:1018700028444446804588BF04465B1B224659469F
:1018800009EB0300FEF788FCB87940F04000B8711E
:10189000A9E7019441F2010AAFE70220F87152E78B
:1018A0000120FBE7009A41780078AA18914270471E
:1018B000494600F0B3B90123494600F0B5B938B53F
:1018C0000546FFF72FFD01004CD105F58054A179A5
:1018D0008A0647D548060FD529462068A26941F2F5
:1018E00001050123405D00F09FF908B1012032BDE0
:1018F000A07900F0BF00A071E1692068FEF735FD16
:1019000001002FD1256AE87A40F02000E872E068F3
:101910002877E1680904090E6977E068000CA87768
:10192000E068000EE87728462169FFF72FF800F0FD
:10193000A5F9A8750104090E020C000E6876E97578
:101940000020A874E8742A7641F20402A07900F01D
:10195000DF00A0710121206881542068BDE8324079
:10196000FEF720BD32BD10B50446FFF7A8FF010009
:101970000DD12046FFF7D6FC010008D104F58054B4
:10198000A06AFEF79AFC010004BF0021216010BD8F
:10199000B07900F0BF00B0717047000046415400BC
:1019A0007C23002052526141727241612DE9F14F56
:1019B00089461446002269462046FFF73DFB5FEA50
:1019C0000008D4F800A063D10AF58057D7F814B006
:1019D0003869ABF10201814228BFC9F8000057D233
:1019E0003E780025012E16D1022421465046FEF7EE
:1019F0003DFD10F1010F08D0012809D000B96D1C80
:101A00007869641C8442F0D33BE04FF0010838E071
:101A10004FF0020835E03C6A18E09CF802309CF870
:101A200003E09CF800B01B0443EA0E639CF801E05D
:101A300043EA0E234BEA03031B0108BF15460CF1D2
:101A4000040C091F401E1CD061B983462146504634
:101A5000FEF78BFC8046641C5FEA080011D179898F
:101A6000D44658466A1C022ED7D19CF801309CF807
:101A700000E05EEA032308BF15460CF1020C891E44
:101A8000E0E73D61787940F001007871C9F80050D5
:101A90004046BDE8F28F0000502100200FB0BDE8A5
:101AA000F08F3068FEF734BC2DE9FC4105460F4647
:101AB000904600242E46781E844211DA01AB0122A2
:101AC00069464046FFF758FD0198012808D19DF866
:101AD00000000D28F2D0641C0A2806F8010BEAD198
:101AE0000020307004B900252846BDE8F6817CB599
:101AF0000D4604460A2D04BF0D21FFF7F8FF666866
:101B0000002E16D404F10C008555761C3D2E0CDBFE
:101B100020686B46324604F10C01FFF7E8FD00989F
:101B2000B0420CBF00264FF0FF36A0686660401C34
:101B3000A06073BD10B594B00446019100210291DC
:101B4000039104E014F8011B01A8FFF7D0FF2078EF
:101B50000028F7D1029A002A08D400F00BF80028D8
:101B600001BF029800998842039801D04FF0FF30DE
:101B700014B010BD01986B4604A9FFF7B8BD8028CA
:101B800007DAA0F161011A2904D24FF6DF7108408B
:101B900070470020704700004018491C1CBFB1F17D
:101BA000010100F8012DF9D1704730B4002513E090
:101BB00050F8042BD30744BFA9F101039A18091F59
:101BC000042942F8045BFAD213468C0744BF1580FF
:101BD0009B1CC90748BF1D7050F8041B0029E7D1A2
:101BE00030BC704701461E4A531802EB81014A6817
:101BF000187A516808471A4B02460020995C002960
:101C000000D0704710B501249C5403EB82019C184E
:101C10004A68207A1368BDE81040184770B500F094
:101C200009F8AC68A04770BD70B500F003F8EC6827
:101C3000A04770BD04460A4D2E1905EB8404656863
:101C4000307A704738B50346054CE51804EB83033A
:101C50005C68287A236901B0BDE83040184700006D
:101C60006823002010B5034C0348211D00F025F81F
:101C7000207010BD74230020100000200020704749
:101C800070B50F4C657A03460120012D14DC657A8E
:101C900000206055607A04EB80067360607A20440F
:101CA0000272607A421C6272303008702F223A2031
:101CB00048708A700020C87070BD0022E0E7000004
:101CC00068230020002200E001224021DFF86405A3
:101CD00000F07DBB11B581B0DFF85C45204600F017
:101CE0006AFD0128FAD14FF47A73012201A9204636
:101CF00000F0C3FB13BD1CB5FF2100228DF80510B9
:101D00008DF80420DFF83045204600F054FD01280E
:101D1000FAD14FF47A700090012301AA0DF1050168
:101D2000204600F05FFC9DF8040016BD10B5044687
:101D3000FFF7E1FF207010BD10B5DFF8004532203D
:101D40002070FFF7D8FFFFF7D6FFFF281CBF2178D0
:101D50000029F8D110BD7CB5FFF7B6FF41F6FF743E
:101D60000A25FF20FFF7B6FF6D1EFAD1FFF7AAFF85
:101D700040208DF80000002195208DF80110ADF86D
:101D800002108DF804108DF8050000261DF80600DD
:101D9000FFF7A0FF761C052EF8DDFFF7ACFF01284A
:101DA00018BF002C18BF641EF7D1FFF78DFFFF206E
:101DB000FFF790FFDFF888140120887073BD70B5BD
:101DC0000546DFF880640A200C463070FFF793FF69
:101DD000FF2804D130780028F8D1002070BDFE28FB
:101DE000FBD12846FFF7A2FF6D1C2846FFF79EFF98
:101DF0006D1CA41EF5D1FFF77EFFFFF77CFF0120CD
:101E000070BD70B505460C46FFF796FFFF2827D139
:101E10002046FFF75FFFFD2C1CD04FF4807428781C
:101E2000FFF758FF6878FFF755FFAD1C641EF6D129
:101E3000FFF761FFFFF75FFF4124FFF75CFF0646F6
:101E400000F01F00052801D0641EF6D1FFF753FFF4
:101E50000028FBD006F01F06052E01D1012070BD21
:101E6000002070BD38B504460D46FFF765FFFF281A
:101E700001D0FF2032BD2046FFF72CFF280EFFF7D0
:101E800029FF2802000EFFF725FF2804000EFFF7A8
:101E900021FFE8B2FFF71EFF0020402C08BF95206D
:101EA00002D0482C08BF8720FFF714FF4C2C08BF36
:101EB000FFF721FF0A24FFF71EFF010601D5641E6C
:101EC000F9D132BDF8B508B10120F2BDDFF8705389
:101ED000287881077BD4FFF73EFFFFF7F3FE002150
:101EE0004020FFF7BFFF0024012866D1DFF85463CC
:101EF000642030704FF4D5714820FFF7B3FF0128FC
:101F000036D10027FFF7F7FEF9B27F1C0DF801006C
:101F1000F8B20328F6DD9DF80200012804BF9DF801
:101F20000300AA2849D100F0E9F8022804DA4FF0AA
:101F3000804100F052F810B130780028F3D13178A8
:101F400000293AD000217A20FFF78CFF002834D1F5
:101F5000FFF7D1FEE1B2641C0DF80100E0B20328E6
:101F6000F6DD9DF80000410654BF0224062424E05B
:101F700000F0C4F8022805DA00F02EF80228B8BFF5
:101F8000022409DB012400214120FFF76BFF58B137
:101F9000307848B1022CF6D100F0B0F80228F7DA18
:101FA00000F01AF80028F3D1307828B14FF400710E
:101FB0005020FFF757FF00B100246C70FFF784FE3C
:101FC000FFF799FE24B1287800F0FE00287001E0A8
:101FD0000021A9702878F2BD0021692042E708B1EC
:101FE0000120704796480078704770B50D46164638
:101FF0001C4600B90CB9042070BD91480178CA078D
:1020000001D5032070BD4078410758BF7602FFF725
:1020100059FE012C314608D15120FFF723FF98B912
:1020200000F01BF880B100240EE05220FFF71AFFE9
:1020300050B900F012F818B1641E05F50075F8D11A
:1020400000214C20FFF70EFFFFF73EFEFFF753FE87
:10205000200018BF0120C0B270BD4FF400712846A7
:10206000ADE6F8B50D4616461C4600B90CB904207D
:10207000F2BD734F3878C10701D50320F2BD38781F
:10208000410701D50220F2BD7878410758BF76029A
:10209000FFF718FE012C0BD131465820FFF7E2FE66
:1020A00018BBFE212846FFF7ACFEF0B100241CE06F
:1020B0007878810705D500F021F821465720FFF7F1
:1020C000D1FE31465920FFF7CDFE70B9FC212846DC
:1020D000FFF797FE18B1641E05F50075F6D1FD21D6
:1020E0000020FFF78EFE00B90124FFF7EDFDFFF79A
:1020F00002FE200018BF0120C0B2F2BD00217720EF
:10210000B0E6F8B5144684B00E46254608B1042062
:102110008DE00127052E4A4912D188782A781AB114
:10212000022A08D004D309E030B10020887003E00F
:10213000FFF711FE00E06870002777E0042775E0E4
:102140000878C10748BF032071D4FFF7BBFD002EFC
:1021500047D0012E08D0022E3FD00B2E46D00C2E99
:1021600047D00D2E51D05CE000214920FFF77AFEC8
:10217000002857D110216846FFF721FE002851D0D2
:102180009DF800309DF808109DF809209B09012B4F
:1021900006D102EB0120401C00048009206032E0DF
:1021A0009DF807309DF806509DF80A009B00AD028F
:1021B00003EB91119DF8053005F4406503F00F0322
:1021C0005200691803EBD01302F00602491CD21822
:1021D00089B2D01F8140216015E04FF4007020804B
:1021E00011E0FFF7A9FDFF281CD10CE000214920D8
:1021F00001E000214A20FFF735FE98B9102128465A
:10220000FFF7DDFD70B100270CE000217A20FFF719
:1022100029FE30B90424FFF76EFD641E05F8010B9A
:10222000F9D10427FFF750FDFFF765FD384605B0EB
:10223000F0BD00000004024028000020852300209B
:1022400024000020842300202DE9F84702460B4695
:10225000002461480F2101271D68A74007EA0508EF
:10226000B84540F0AE805D68022D18BF122D4FEAD0
:10227000840911D1E50802EB850C09F01C05DCF896
:1022800020E0D3F810A001FA05F62EEA06060AFAB5
:1022900005F53543CCF820504FEA440C0326156869
:1022A00006FA0CF66FEA060E1E7906F003060EEA31
:1022B000050506FA0CF6354315605D68012D18BF5B
:1022C000022D03D0112D18BF122D10D19568DE6894
:1022D0000EEA050506FA0CF635439560556825EAC1
:1022E00007075D68C5F30015A5402F435760D76801
:1022F0000EEA07059F6807FA0CF63543D5605D685E
:10230000EF005ED50025009509F00C090768334EF3
:1023100047F48047076001FA09FE056805F4804527
:102320000095009FA70856F8275025EA0E0E2C4D61
:10233000AA4208BF002513D02A4DAA4208BF012592
:102340000ED0294DAA4208BF022509D0274DAA4226
:1023500008BF032504D0264DAA420CBF042507253B
:1023600005FA09F545EA0E0546F827506FEA080711
:10237000204E356807EA050C5D68ED0348BF48EA62
:102380000C0CC6F800C0756807EA050C5D68AD0363
:1023900048BF48EA0C0CC6F804C0B56807EA050C4B
:1023A0005D68ED0248BF48EA0C0CC6F808C0F56845
:1023B00007EA050C5F68BD0248BF48EA0C0CC6F886
:1023C0000CC0641C0F2C7FF646AFBDE8F18702B944
:1023D0000904816170470000443802400838014018
:1023E000000002400004024000080240000C0240CD
:1023F00000100240003C014038B5040001D101202A
:1024000032BD0020A06204F15005687820B9002197
:102410002970204600F04CFA0220687000F027F87E
:102420006268A168E06823680A4321690243606921
:102430000A43A169024301F40071E0690A43216A79
:102440000243A06A0A4302431A60A169606A2268D3
:10245000090C01F00401014351602068C16921F4B5
:102460000061C161002068600121697032BD20688F
:10247000016821F04001016070472DE9F8430446EE
:1024800004F150060027307801280D469146984601
:1024900008BF022000F099800120307000F042FA5D
:1024A0007178012918BF022740F08A80290018BFDF
:1024B000B9F1000F00F0838003227270776021630E
:1024C000A4F83490A4F83690A763A787E7876764D9
:1024D0002764A368B3F5004F04D12268136843F45E
:1024E00080431360226813685D0603D4136843F0C9
:1024F00040031360E268B2F5006F626827D1002ADA
:102500001CBFE28E012A06D1226831F8023BD3605B
:10251000E38E5A1EE2868946054605E039F8021B1D
:10252000C160E08E411EE186E08E00284FD0206819
:1025300081688A07F2D4B8F1000F51D018F1010F69
:10254000F2D000F0EFF9401B4045EDD348E0002AFF
:102550001CBFE28E012A06D1226811F8013B1373D9
:10256000E38E5A1EE2868946054605E019F8011BEE
:102570000173E08E411EE186E08E40B320688168E1
:102580008A07F3D4B8F1000F2AD018F1010FF3D065
:1025900000F0C8F9401B4045EED321E02A464146F1
:1025A000204600F051F918B120200127706007E0A3
:1025B000A06810B9009700F059F9706800B10127C0
:1025C00001207070002131703846BDE8F28300951B
:1025D000434601220221204600F0F0F80028DDD019
:1025E0000327EDE72DE9F84F074607F150060124D0
:1025F000307800250128884691469A4608BF022077
:1026000000F0C280347000F08DF9717801298346A2
:1026100009D07868B0F5827F02BFB8680028042925
:1026200001D00225ABE0B8F1000F1CBFB9F1000FDB
:10263000BAF1000F01D10125A1E07078012804BF93
:10264000052171707560C7F83890A7F83EA0A7F80B
:102650003CA0C7F83080A7F836A0A7F834A03D64A6
:102660007D6438680268510603D4026842F0400273
:102670000260F868DDF828A0B0F5006F786835D101
:1026800000281CBFF88E012806D1386838F8021BD4
:10269000C160F98E481EF886F88E002804BFF88FB6
:1026A000002873D0002C1CBFF88E00280AD0386890
:1026B00081688A0706D538F8021BC1600024F88EAD
:1026C000411EF986F88F38B100F06CF804D5C06867
:1026D00029F8020B00F06AF81AF1010FDCD000F0C3
:1026E00021F9A0EB0B005045D6D359E000281CBFC0
:1026F000F88E012806D1386818F8011B0173F98E8D
:10270000481EF886F88E002804BFF88F00283DD0B8
:10271000002C1CBFF88E00280AD0386881688A0710
:1027200006D518F8011B01730024F88E411EF986A6
:10273000F88F38B100F036F804D5C06809F8010BFD
:1027400000F034F81AF1010FDCD000F0EBF8A0EB48
:102750000B005045D6D323E05A465146384600F088
:1027600073F818B120200125706008E0B86830B90E
:1027700000953968CA680092896800910098012123
:102780007170002030702846BDE8F28FCDF800B09F
:10279000534601220221384600F010F80028DBD011
:1027A0000325ECE738688168CA0770470124F98F70
:1027B0004A1EFA87704790F8510070472DE9F041A2
:1027C000069F05460E4690461C46286881683140A3
:1027D000B1420CBF01200020404532D014F1010F5E
:1027E000F3D024B100F09EF8C01BA042EDD32868BE
:1027F000416821F0E00141606868B0F5827F09D14D
:10280000A868B0F5004F18BFB0F5806F02D12868F6
:10281000FFF72EFEA86AB0F5005F0AD129680A68A2
:102820004DF6FF7002400A602868016841F40051CB
:10283000016005F150000121417000220270032067
:1028400000E00020BDE8F0811CB500920B46044674
:1028500000228021FFF7B2FF10B100F002F8032040
:1028600016BD606D40F02000606570472168CA6841
:10287000009289680091009A7047000081B00020A2
:10288000009000222348416841F480414160416842
:1028900001F48041009100990092036843F0805355
:1028A0000360006800F080500090009801B070470D
:1028B00038B586B0044601A8142100F039F8246820
:1028C000154DAC4224D100200090002213484169EC
:1028D00041F480514161416901F4805100910099B6
:1028E0000092E021036843F00103036002220068C4
:1028F00000F0010000900098094801910292002127
:102900000391032205210591049201A9FFF79CFC84
:1029100007B030BD4038024000300140303802403E
:102920000000024001484068704700BF00000020DE
:10293000002200F001B8000000B500BF1300964669
:102940009446103928BFA0E80C50FAD85FEA417CC1
:1029500028BF0CC048BF40F8042BC90728BF20F887
:10296000022B48BF00F8012B00BD00002DE9F84301
:10297000040017D02078B74EC10745D5B06800F0E5
:102980000C00042807D0B06800F00C0008280BD118
:102990007068410208D53068810335D56068002829
:1029A00040F0BA80012053E16068B0F5803F04D167
:1029B000306840F48030306011E0B0F5A02F30680E
:1029C00006D140F480203060316841F4803105E068
:1029D00020F480303060316821F4802131606068FB
:1029E00068B1FFF79FFF05463068810300F19480CE
:1029F000FFF798FF401B6528F6D3032028E1FFF777
:102A000091FF05463068810340F18680FFF78AFF19
:102A1000401B6528F6D3F0E7FFF784FF401B022830
:102A200040F2A780E9E7E06870B101213960FFF763
:102A300079FF05463068810700F1CB80FFF772FF10
:102A4000401B0228F6D9D8E73860FFF76BFF054630
:102A50003168880763D5FFF765FF401B0228F7D967
:102A6000CBE70860FFF75EFF0546706F810775D5FD
:102A7000FFF758FF401B0228F7D9BEE70528306F43
:102A800006D140F004003067306F40F0010005E0EF
:102A9000400840003067306F20F00400306741F29A
:102AA0008938A06868B1FFF73DFF8146306F810724
:102AB00000F19C80FFF736FFA0EB09004045F5D3FD
:102AC0009BE7FFF72FFF8146306F810740F18E8033
:102AD000FFF728FFA0EB09004045F5D38DE7FFF78E
:102AE00021FF401B022840F2968086E7FFF71AFF7D
:102AF000001B022840F2A7807FE700203866FFF71E
:102B000011FF04463068810140F1A180FFF70AFF00
:102B1000001B0228F6D970E720784F4F81071BD59C
:102B2000B06810F00C0F09D0B06800F00C00082855
:102B30007FF479AF706841023FF575AF3068810767
:102B400003D5E06801287FF42DAF3168206921F0BA
:102B5000F80141EAC0013160217808070DD56069AC
:102B60003E4900283FF47DAF01220A60FFF7DAFEFC
:102B70000546706F81077FF54FAF207841073AD542
:102B8000306C0025C1000AD400950125316C41F05C
:102B900080513164306C00F0805000900098DFF874
:102BA000C080D8F80000C1051BD4D8F8000040F45C
:102BB0008070C8F80000FFF7B5FE8146D8F8000025
:102BC000C1050ED4FFF7AEFEA0EB09000228F5D92F
:102BD00013E73068216920F0F80040EAC100306056
:102BE000BAE7A06801287FF449AF4DE71DB1306C0A
:102BF00020F080503064A06948B3B16801F00C0146
:102C000008293FF4CFAE02287FF477AF0020386662
:102C1000FFF788FE0546306881013FF560AFE26945
:102C2000206A616A0243A06A400842EA8112401E9B
:102C300042EA0042E06A42EA0062726001213966BB
:102C4000FFF770FE0446306881017FF54FAF00202A
:102C5000BDE8F2830038024000004742800E474240
:102C6000007000402DE9F8432DED028B86B000F096
:102C70002FF900F0C0F801A81421FFF759FE002039
:102C800000909FED808B8148814D0168814C0FF24F
:102C90001C280FF21C2941F004010160026802F0B7
:102CA00004020092002200990092036843F001039D
:102CB0000360016801F001010091009900924FF456
:102CC0000051036843F002030360006800F0020053
:102CD000009000982846FFF77AFB01224021204609
:102CE000FFF775FB4FF40051019101220021039180
:102CF0000491029201A92846FFF7A6FA402101910A
:102D000001220292002103910322049201A920468C
:102D1000FFF79AFA604C614820604FF4827161605D
:102D20000A2000224FF40071E062A260E26022619A
:102D30006261A161E26122626262A2622046FFF7E3
:102D40005BFBFEF78FFF0022414604F16800FEF7AF
:102D500002FB41F298002618132249463046FEF73E
:102D600028FB04F1580204F15C014046FEF71EFE08
:102D7000A76D41F2140141F202057858795D801E79
:102D8000484300F0BFF853EC182B00F0C9F800F0EE
:102D900099F92066795DE06D484300F0B3F802468A
:102DA0000B4651EC180B00F0BBF800F08BF9606695
:102DB00031463C48FEF7BEFE4FEA06013FA0FEF753
:102DC000B9FE3046FEF7CFFD012249463046FEF7F8
:102DD000F0FA42F2C400324664212044FEF764FE59
:102DE0000028F6D13046FEF7BEFD01224146002004
:102DF000FEF7B1FAFEE780B592B006A83021FFF7E2
:102E000097FD01A81421FFF793FD002000902448AE
:102E1000016841F0805101600021006800F080509D
:102E200000900098204800910221026842F440423C
:102E300002600122006800F4404000900098069172
:102E4000099210210A91022200210C920D91082270
:102E500048210E920F91022204211092119106A88E
:102E6000FFF784FD022102910F204FF48051019061
:102E70000022049103920592022101A800F036F984
:102E800013B000BD000000000000E03F30380240F9
:102E900000080240000402402800002000300140E9
:102EA00040380240BC3500080070004000000000BF
:102EB00066697273742E74787400000053617665CD
:102EC0002074686520776F726C64212121000000F6
:102ED00080B50B48016841F400710160026842F45A
:102EE00080620260016841F480710160032000F09B
:102EF000C8F9002000F00EFAFFF7C0FC002002BD68
:102F0000003C0240014648B1B0FA80F18840C91C3B
:102F1000C1F58461090501EBD0214005704700002F
:102F2000B0B581EA030C0CF0004C40F2FF7515EAD5
:102F300011541DBF15EA1357AC42AF4239E0E419F2
:102F400023EA455343F48013C90241F0004141EAAA
:102F5000505EC7021100A7FB020200284FF00000DC
:102F6000EEFB01204FF00001E3FB072118BF42F008
:102F70000102401800214941E3FB0E01A4F58064E1
:102F80000F0302D252004041494154F101046CDD6B
:102F9000470872F1004250F1000051EB0451A1F5D5
:102FA00080115CBF41EA0C01B0BD4CEA0551002024
:102FB000B0BD05EA1357AC4214BFAF4241E050EA3E
:102FC000410E1CBF52EA430E02E061460020B0BD34
:102FD00024423C441BD15FEA070EF6D0090302BF2E
:102FE00001460020AEF1140EB1FA81F7AEEB0704F2
:102FF00001FA07FE0C37C7F1200100FA07F7C840B5
:103000004EEA000E23EA455343F48013A2E733F05F
:103010000043B3FA83F704BFB2FA82FE77440B3F52
:10302000E41BB7F1200E2FBF02FA0EF3BB40C7F12D
:10303000200E22FA0EFE38BF43EA0E03BA40641C8B
:1030400082E750EA410E14BF52EA430E6FF00001CE
:103050004FF4001717EB430F8ABF194617EB410FC8
:10306000B5E74CEA05510020B0BDD4F10104B4F13C
:1030700020070FDAC4F12007520828BF42F00102EE
:1030800010FA07F501FA07F7E1BF2A43E040384399
:10309000E1400FE0352C98DCC7F1200452EA4002F1
:1030A00020FA07F218BF42F0010231FA07F0A140FE
:1030B0000A43002172F1004250F1000051EB0C0173
:1030C000B0BD0000400D491840EA81200CD2490DE6
:1030D000A1F58061491C40F0004005DBD1F11F01E2
:1030E00054BFC840C0177047002070472DE9F04119
:1030F00004000F4677D0404E306800F00F00B84211
:1031000002D200F072F86ED120683C4D810712D5D2
:10311000400703D5A96841F4E051A9602078010770
:1031200003D5A86840F46040A860A968A06821F0B1
:10313000F0010143A9602178C8074CD560680128D7
:1031400002D129688A0305E0022818BF032803D1A9
:1031500029688A0103D446E029688A0743D5A9680B
:10316000890840EA8100A860FFF7DCFB8046A86878
:10317000616800F00C00B0EB810F2CD0FFF7D2FBA0
:10318000A0EB080041F289318842F0D3032020E00F
:103190002078410705D5AA68E06822F4E05202438E
:1031A000AA602178080706D5A968206921F4604142
:1031B00041EAC001A96000F027F8AA681049114B44
:1031C000C2F30312895CC8401860002000F0A2F826
:1031D0000020BDE8F081306800F00F008742D7D2B0
:1031E00000F003F8D4D00120F3E73770316801F024
:1031F0000F01B94270470000003C02400038024015
:10320000303500080C00002030B5144C606800F028
:103210000C00042802D0082802D01DE0104830BD60
:10322000226820680023410202F03F0204D525688D
:103230000B49C5F3881003E020680A49C0F38810E1
:10324000A1FB000100F086F82168C1F30141491C8F
:103250004900B0FBF1F030BD024830BD04380240F7
:1032600040787D010024F4000901020006D5244ABB
:1032700000F00F00104400F8041C7047214B195453
:103280007047214B19684FF6FF020002114000F40D
:10329000E06008431D4908431860704738B51A4B71
:1032A0001C68C4F30223C3F10704052C28BF0424BF
:1032B0001D1D072D34BF0023DB1E012505FA04F474
:1032C000641E2140994005FA03F35B1E1A40114326
:1032D000BDE83440C8E710B5401EB0F1807F01D38F
:1032E000012010BD0A4C60600F214FF0FF30FFF746
:1032F000BBFF0021A16007202060002010BD00005E
:1033000018ED00E000E400E00CED00E00000FA053C
:1033100010E000E038B50D4D0D4B2A7804464FF40F
:103320007A711868B1FBF2F2B0FBF2F0FFF7D3FF4D
:1033300050B9102C08D2002221464FF0FF30FFF781
:10334000ADFFAC60002032BD012032BD0000002086
:103350000C000020D3BBD9B1B2F5803F5BD2022A6A
:103360001ED98C46B1FBF2F102FB11C31B0443EAE8
:103370001043B3FBF2FC02FB1C3380B240EA034370
:10338000B3FBF2F002FB103240EA0C40002370471E
:10339000022A05D98446B0FBF2F002FB10C2704746
:1033A0004AB105D100F0010249085FEA30007047D8
:1033B00000220023704700F051B80B0002000021EA
:1033C00000207047F7D3002200237047904271EB32
:1033D000030CF2D370B5B1FA81F4B3FA83F52C1B68
:1033E000A340C4F1200532FA05F63343A2405FF052
:1033F0000046E64002E05B085FEA3202841A71EBA5
:10340000030524BF204629467641F4D302000B0071
:103410003000002170BD70B5B1FA81F4B2FA82F5C6
:10342000C4F120046419B4F12006DAD3B2405FF08D
:103430000044F440002502E052085FEA3303C61A54
:1034400071EB020E24BF3046714664416D41F3D3E7
:1034500002000B002000290070BD00007047000032
:10346000809A90B68EB78F80D2D3D4D8D7DE8E8F85
:10347000909292E299E3EAEB59999A9D9C9D9E9FC6
:10348000B5D6E0E9A5A5A6A7A8A9AAABAC21AEAF81
:10349000B0B1B2B3B4B5B6B7B8B9BABBBCBDBEBFB4
:1034A000C0C1C2C3C4C5C7C7C8C9CACBCCCDCECFA3
:1034B000D0D1D2D3D4D5D6D7D8D9DADBDCDDDEDF94
:1034C000E0E1E2E3E5E5E6E7E7E9EAEBEDEDEEEF83
:1034D000F0F1F2F3F4F5F6F7F8F9FAFBFCFDFEFF74
:1034E0000E48016841F47001016000220C4908682F
:1034F00040F0010008608A600B680A480A4A0340ED
:103500000B604A6000200B68084A23F480230B609C
:10351000C8604FF0006111607047000088ED00E066
:1035200000380240FFFFF6FE1030002408ED00E0F6
:103530000000000000000000010203040607080963
:1035400030B450F8041B79B1026843680244083073
:10355000DC0744BFA9F10104E31852F8045B43F807
:10356000045B091FF9D1ECE730BC704710B507497F
:1035700079441831064C7C44163404E00A68081D6E
:10358000114488470146A142F8D110BD78000000DF
:103590009800000001000000000000001000000082
:1035A0000024F40095360008993600089D3600087E
:1035B000A1360008A53600080100000053544D3321
:1035C00032205344204361726420492F4F204578B4
:1035D000616D706C6520766961205350490A000066
:1035E0004EF68851CEF20001086840F47000086081
:1035F000BFF34F8FBFF36F8F4FF00070E1EE100AF3
:1036000070470000A7E5FFFF6023000028000020AE
:10361000000000002DFFFFFF2800000078FFFFFFE3
:10362000000000200000000000F00DF8002801D08C
:10363000FFF79CFFAFF300800020AFF30080FFF79F
:1036400011FB00F002F80120704700F001B8000003
:103650000746384600F002F8FBE7000080B5AFF3FC
:103660000080024A11001820ABBEFBE726000200D2
:103670007047FEE7FEE7FEE7FEE7704770477047DA
:1036800000F000B80248416802788A18426070472A
:1036900000000020FEF716BCFEF7A1BCFEF7A5BC9B
:1036A000FEF7DFBCFEF72DBD01488047014800470B
:1036B000E1340008B9360008AFF30080FFF790FF4F
:1036C000FFF7B2FFFFF7FEBFFFF7FEBFFFF7FEBF3A
:1036D000FFF7FEBFFFF7FEBFFFF7FEBFFFF7FEBF1E
:1036E000FFF7FEBFFFF7FEBFFFF7FEBFFFF7FEBF0E
:1036F000FFF7FEBFFFF7FEBFFFF7FEBFFFF7FEBFFE
:10370000FFF7FEBFFFF7FEBFFFF7FEBFFFF7FEBFED
:10371000FFF7FEBFFFF7FEBFFFF7FEBFFFF7FEBFDD
:10372000FFF7FEBFFFF7FEBFFFF7FEBFFFF7FEBFCD
:10373000FFF7FEBFFFF7FEBFFFF7FEBFFFF7FEBFBD
:10374000FFF7FEBFFFF7FEBFFFF7FEBFFFF7FEBFAD
:10375000FFF7FEBFFFF7FEBFFFF7FEBFFFF7FEBF9D
:10376000FFF7FEBFFFF7FEBFFFF7FEBFFFF7FEBF8D
:10377000FFF7FEBFFFF7FEBFFFF7FEBFFFF7FEBF7D
:10378000FFF7FEBFFFF7FEBFFFF7FEBFFFF7FEBF6D
:10379000FFF7FEBFFFF7FEBFFFF7FEBFFFF7FEBF5D
:0837A000FFF7FEBFFFF7FEBFBB
:04000005080036B900
:00000001FF
